{
  "address": "0xe1999693c34a10985486229aaAc185f3AD9a3C94",
  "abi": [
    {
      "inputs": [
        {
          "internalType": "address",
          "name": "vrfCoordinatorAddress",
          "type": "address"
        },
        {
          "internalType": "bytes32",
          "name": "gasLane",
          "type": "bytes32"
        },
        {
          "internalType": "uint64",
          "name": "subscriptionId",
          "type": "uint64"
        },
        {
          "internalType": "uint32",
          "name": "callbackGasLimit",
          "type": "uint32"
        },
        {
          "internalType": "string[3]",
          "name": "dogTokenUris",
          "type": "string[3]"
        },
        {
          "internalType": "uint256",
          "name": "mintFee",
          "type": "uint256"
        }
      ],
      "stateMutability": "nonpayable",
      "type": "constructor"
    },
    {
      "inputs": [
        {
          "internalType": "address",
          "name": "have",
          "type": "address"
        },
        {
          "internalType": "address",
          "name": "want",
          "type": "address"
        }
      ],
      "name": "OnlyCoordinatorCanFulfill",
      "type": "error"
    },
    {
      "inputs": [],
      "name": "RandomIpfsNft__NeedMoreEthSent",
      "type": "error"
    },
    {
      "inputs": [],
      "name": "RandomIpfsNft__RangeOutOfBounds",
      "type": "error"
    },
    {
      "inputs": [],
      "name": "RandomIpfsNft__TransferFailed",
      "type": "error"
    },
    {
      "anonymous": false,
      "inputs": [
        {
          "indexed": true,
          "internalType": "address",
          "name": "owner",
          "type": "address"
        },
        {
          "indexed": true,
          "internalType": "address",
          "name": "approved",
          "type": "address"
        },
        {
          "indexed": true,
          "internalType": "uint256",
          "name": "tokenId",
          "type": "uint256"
        }
      ],
      "name": "Approval",
      "type": "event"
    },
    {
      "anonymous": false,
      "inputs": [
        {
          "indexed": true,
          "internalType": "address",
          "name": "owner",
          "type": "address"
        },
        {
          "indexed": true,
          "internalType": "address",
          "name": "operator",
          "type": "address"
        },
        {
          "indexed": false,
          "internalType": "bool",
          "name": "approved",
          "type": "bool"
        }
      ],
      "name": "ApprovalForAll",
      "type": "event"
    },
    {
      "anonymous": false,
      "inputs": [
        {
          "indexed": false,
          "internalType": "enum RandomIpfsNft.Breed",
          "name": "breed",
          "type": "uint8"
        },
        {
          "indexed": false,
          "internalType": "address",
          "name": "minter",
          "type": "address"
        }
      ],
      "name": "NftMinted",
      "type": "event"
    },
    {
      "anonymous": false,
      "inputs": [
        {
          "indexed": true,
          "internalType": "uint256",
          "name": "requestId",
          "type": "uint256"
        },
        {
          "indexed": false,
          "internalType": "address",
          "name": "requester",
          "type": "address"
        }
      ],
      "name": "NftRequested",
      "type": "event"
    },
    {
      "anonymous": false,
      "inputs": [
        {
          "indexed": true,
          "internalType": "address",
          "name": "previousOwner",
          "type": "address"
        },
        {
          "indexed": true,
          "internalType": "address",
          "name": "newOwner",
          "type": "address"
        }
      ],
      "name": "OwnershipTransferred",
      "type": "event"
    },
    {
      "anonymous": false,
      "inputs": [
        {
          "indexed": true,
          "internalType": "address",
          "name": "from",
          "type": "address"
        },
        {
          "indexed": true,
          "internalType": "address",
          "name": "to",
          "type": "address"
        },
        {
          "indexed": true,
          "internalType": "uint256",
          "name": "tokenId",
          "type": "uint256"
        }
      ],
      "name": "Transfer",
      "type": "event"
    },
    {
      "inputs": [],
      "name": "MAX_CHANCE_VALUE",
      "outputs": [
        {
          "internalType": "uint256",
          "name": "",
          "type": "uint256"
        }
      ],
      "stateMutability": "view",
      "type": "function"
    },
    {
      "inputs": [
        {
          "internalType": "address",
          "name": "to",
          "type": "address"
        },
        {
          "internalType": "uint256",
          "name": "tokenId",
          "type": "uint256"
        }
      ],
      "name": "approve",
      "outputs": [],
      "stateMutability": "nonpayable",
      "type": "function"
    },
    {
      "inputs": [
        {
          "internalType": "address",
          "name": "owner",
          "type": "address"
        }
      ],
      "name": "balanceOf",
      "outputs": [
        {
          "internalType": "uint256",
          "name": "",
          "type": "uint256"
        }
      ],
      "stateMutability": "view",
      "type": "function"
    },
    {
      "inputs": [
        {
          "internalType": "uint256",
          "name": "tokenId",
          "type": "uint256"
        }
      ],
      "name": "getApproved",
      "outputs": [
        {
          "internalType": "address",
          "name": "",
          "type": "address"
        }
      ],
      "stateMutability": "view",
      "type": "function"
    },
    {
      "inputs": [
        {
          "internalType": "uint256",
          "name": "moddedRng",
          "type": "uint256"
        }
      ],
      "name": "getBreedFormModdedRng",
      "outputs": [
        {
          "internalType": "enum RandomIpfsNft.Breed",
          "name": "",
          "type": "uint8"
        }
      ],
      "stateMutability": "pure",
      "type": "function"
    },
    {
      "inputs": [],
      "name": "getChanceArray",
      "outputs": [
        {
          "internalType": "uint256[3]",
          "name": "",
          "type": "uint256[3]"
        }
      ],
      "stateMutability": "pure",
      "type": "function"
    },
    {
      "inputs": [
        {
          "internalType": "uint256",
          "name": "index",
          "type": "uint256"
        }
      ],
      "name": "getDogTokenUris",
      "outputs": [
        {
          "internalType": "string",
          "name": "",
          "type": "string"
        }
      ],
      "stateMutability": "view",
      "type": "function"
    },
    {
      "inputs": [],
      "name": "getMintFee",
      "outputs": [
        {
          "internalType": "uint256",
          "name": "",
          "type": "uint256"
        }
      ],
      "stateMutability": "view",
      "type": "function"
    },
    {
      "inputs": [],
      "name": "getTokenCounter",
      "outputs": [
        {
          "internalType": "uint256",
          "name": "",
          "type": "uint256"
        }
      ],
      "stateMutability": "view",
      "type": "function"
    },
    {
      "inputs": [
        {
          "internalType": "address",
          "name": "owner",
          "type": "address"
        },
        {
          "internalType": "address",
          "name": "operator",
          "type": "address"
        }
      ],
      "name": "isApprovedForAll",
      "outputs": [
        {
          "internalType": "bool",
          "name": "",
          "type": "bool"
        }
      ],
      "stateMutability": "view",
      "type": "function"
    },
    {
      "inputs": [],
      "name": "name",
      "outputs": [
        {
          "internalType": "string",
          "name": "",
          "type": "string"
        }
      ],
      "stateMutability": "view",
      "type": "function"
    },
    {
      "inputs": [],
      "name": "owner",
      "outputs": [
        {
          "internalType": "address",
          "name": "",
          "type": "address"
        }
      ],
      "stateMutability": "view",
      "type": "function"
    },
    {
      "inputs": [
        {
          "internalType": "uint256",
          "name": "tokenId",
          "type": "uint256"
        }
      ],
      "name": "ownerOf",
      "outputs": [
        {
          "internalType": "address",
          "name": "",
          "type": "address"
        }
      ],
      "stateMutability": "view",
      "type": "function"
    },
    {
      "inputs": [
        {
          "internalType": "uint256",
          "name": "requestId",
          "type": "uint256"
        },
        {
          "internalType": "uint256[]",
          "name": "randomWords",
          "type": "uint256[]"
        }
      ],
      "name": "rawFulfillRandomWords",
      "outputs": [],
      "stateMutability": "nonpayable",
      "type": "function"
    },
    {
      "inputs": [],
      "name": "renounceOwnership",
      "outputs": [],
      "stateMutability": "nonpayable",
      "type": "function"
    },
    {
      "inputs": [],
      "name": "requestNft",
      "outputs": [
        {
          "internalType": "uint256",
          "name": "requestId",
          "type": "uint256"
        }
      ],
      "stateMutability": "payable",
      "type": "function"
    },
    {
      "inputs": [
        {
          "internalType": "uint256",
          "name": "",
          "type": "uint256"
        }
      ],
      "name": "s_requestIdToSender",
      "outputs": [
        {
          "internalType": "address",
          "name": "",
          "type": "address"
        }
      ],
      "stateMutability": "view",
      "type": "function"
    },
    {
      "inputs": [],
      "name": "s_tokenCounter",
      "outputs": [
        {
          "internalType": "uint256",
          "name": "",
          "type": "uint256"
        }
      ],
      "stateMutability": "view",
      "type": "function"
    },
    {
      "inputs": [
        {
          "internalType": "address",
          "name": "from",
          "type": "address"
        },
        {
          "internalType": "address",
          "name": "to",
          "type": "address"
        },
        {
          "internalType": "uint256",
          "name": "tokenId",
          "type": "uint256"
        }
      ],
      "name": "safeTransferFrom",
      "outputs": [],
      "stateMutability": "nonpayable",
      "type": "function"
    },
    {
      "inputs": [
        {
          "internalType": "address",
          "name": "from",
          "type": "address"
        },
        {
          "internalType": "address",
          "name": "to",
          "type": "address"
        },
        {
          "internalType": "uint256",
          "name": "tokenId",
          "type": "uint256"
        },
        {
          "internalType": "bytes",
          "name": "data",
          "type": "bytes"
        }
      ],
      "name": "safeTransferFrom",
      "outputs": [],
      "stateMutability": "nonpayable",
      "type": "function"
    },
    {
      "inputs": [
        {
          "internalType": "address",
          "name": "operator",
          "type": "address"
        },
        {
          "internalType": "bool",
          "name": "approved",
          "type": "bool"
        }
      ],
      "name": "setApprovalForAll",
      "outputs": [],
      "stateMutability": "nonpayable",
      "type": "function"
    },
    {
      "inputs": [
        {
          "internalType": "bytes4",
          "name": "interfaceId",
          "type": "bytes4"
        }
      ],
      "name": "supportsInterface",
      "outputs": [
        {
          "internalType": "bool",
          "name": "",
          "type": "bool"
        }
      ],
      "stateMutability": "view",
      "type": "function"
    },
    {
      "inputs": [],
      "name": "symbol",
      "outputs": [
        {
          "internalType": "string",
          "name": "",
          "type": "string"
        }
      ],
      "stateMutability": "view",
      "type": "function"
    },
    {
      "inputs": [
        {
          "internalType": "uint256",
          "name": "tokenId",
          "type": "uint256"
        }
      ],
      "name": "tokenURI",
      "outputs": [
        {
          "internalType": "string",
          "name": "",
          "type": "string"
        }
      ],
      "stateMutability": "view",
      "type": "function"
    },
    {
      "inputs": [
        {
          "internalType": "address",
          "name": "from",
          "type": "address"
        },
        {
          "internalType": "address",
          "name": "to",
          "type": "address"
        },
        {
          "internalType": "uint256",
          "name": "tokenId",
          "type": "uint256"
        }
      ],
      "name": "transferFrom",
      "outputs": [],
      "stateMutability": "nonpayable",
      "type": "function"
    },
    {
      "inputs": [
        {
          "internalType": "address",
          "name": "newOwner",
          "type": "address"
        }
      ],
      "name": "transferOwnership",
      "outputs": [],
      "stateMutability": "nonpayable",
      "type": "function"
    },
    {
      "inputs": [],
      "name": "withdraw",
      "outputs": [],
      "stateMutability": "payable",
      "type": "function"
    }
  ],
  "transactionHash": "0x554042fd58fb1c2904082e72f20e122af6d954874181f19e2f7d01cc9ed9231b",
  "args": [
    "0x8103B0A8A00be2DDC778e6e7eaa21791Cd364625",
    "0x474e34a077df58807dbe9c96d3c009b23b3c6d0cce433e59bbf5b34f823bc56c",
    "7172",
    "500000",
    [
      "ipfs://QmWftbwkJZHAA1mVBxJ1Gn3EPzGc8qvcWz5V7ZHpGcroM6",
      "ipfs://QmSdKZHnStsM6g2QmX6x1qC1mjGjPhaw61CzUx4B3EwRsw",
      "ipfs://QmQ1qRt7GWNq1tHVmyir3FJqfjPjdT2EbyYs4VNUbKg541"
    ],
    "10000000000000000"
  ],
  "numDeployments": 2,
  "solcInputHash": "f33ac108c5bc2c6aefd3f8b982aeb347",
  "bytecode": "0x6101406040523480156200001257600080fd5b50604051620043543803806200435483398181016040528101906200003891906200080b565b6040518060400160405280600f81526020017f52616e646f6d2049504653204e465400000000000000000000000000000000008152506040518060400160405280600381526020017f52494e0000000000000000000000000000000000000000000000000000000000815250878073ffffffffffffffffffffffffffffffffffffffff1660808173ffffffffffffffffffffffffffffffffffffffff1660601b81525050508160009080519060200190620000f59291906200029e565b5080600190805190602001906200010e9291906200029e565b5050506200013162000125620001d060201b60201c565b620001d860201b60201c565b8573ffffffffffffffffffffffffffffffffffffffff1660a08173ffffffffffffffffffffffffffffffffffffffff1660601b815250508460c081815250508367ffffffffffffffff1660e08167ffffffffffffffff1660c01b815250508263ffffffff166101008163ffffffff1660e01b8152505081600a906003620001ba9291906200032f565b508061012081815250505050505050506200092b565b600033905090565b6000600760009054906101000a900473ffffffffffffffffffffffffffffffffffffffff16905081600760006101000a81548173ffffffffffffffffffffffffffffffffffffffff021916908373ffffffffffffffffffffffffffffffffffffffff1602179055508173ffffffffffffffffffffffffffffffffffffffff168173ffffffffffffffffffffffffffffffffffffffff167f8be0079c531659141344cd1fd0a4f28419497f9722a3daafe3b4186f6b6457e060405160405180910390a35050565b828054620002ac90620008f5565b90600052602060002090601f016020900481019282620002d057600085556200031c565b82601f10620002eb57805160ff19168380011785556200031c565b828001600101855582156200031c579182015b828111156200031b578251825591602001919060010190620002fe565b5b5090506200032b919062000396565b5090565b82805482825590600052602060002090810192821562000383579160200282015b8281111562000382578251829080519060200190620003719291906200029e565b509160200191906001019062000350565b5b509050620003929190620003b5565b5090565b5b80821115620003b157600081600090555060010162000397565b5090565b5b80821115620003d95760008181620003cf9190620003dd565b50600101620003b6565b5090565b508054620003eb90620008f5565b6000825580601f10620003ff575062000420565b601f0160209004906000526020600020908101906200041f919062000396565b5b50565b6000604051905090565b600080fd5b600080fd5b600073ffffffffffffffffffffffffffffffffffffffff82169050919050565b6000620004648262000437565b9050919050565b620004768162000457565b81146200048257600080fd5b50565b60008151905062000496816200046b565b92915050565b6000819050919050565b620004b1816200049c565b8114620004bd57600080fd5b50565b600081519050620004d181620004a6565b92915050565b600067ffffffffffffffff82169050919050565b620004f681620004d7565b81146200050257600080fd5b50565b6000815190506200051681620004eb565b92915050565b600063ffffffff82169050919050565b62000537816200051c565b81146200054357600080fd5b50565b60008151905062000557816200052c565b92915050565b600080fd5b6000601f19601f8301169050919050565b7f4e487b7100000000000000000000000000000000000000000000000000000000600052604160045260246000fd5b620005ad8262000562565b810181811067ffffffffffffffff82111715620005cf57620005ce62000573565b5b80604052505050565b6000620005e462000423565b9050620005f28282620005a2565b919050565b600067ffffffffffffffff82111562000615576200061462000573565b5b602082029050919050565b600080fd5b600080fd5b600067ffffffffffffffff82111562000648576200064762000573565b5b620006538262000562565b9050602081019050919050565b60005b838110156200068057808201518184015260208101905062000663565b8381111562000690576000848401525b50505050565b6000620006ad620006a7846200062a565b620005d8565b905082815260208101848484011115620006cc57620006cb62000625565b5b620006d984828562000660565b509392505050565b600082601f830112620006f957620006f86200055d565b5b81516200070b84826020860162000696565b91505092915050565b60006200072b6200072584620005f7565b620005d8565b9050806020840283018581111562000748576200074762000620565b5b835b818110156200079657805167ffffffffffffffff8111156200077157620007706200055d565b5b808601620007808982620006e1565b855260208501945050506020810190506200074a565b5050509392505050565b600082601f830112620007b857620007b76200055d565b5b6003620007c784828562000714565b91505092915050565b6000819050919050565b620007e581620007d0565b8114620007f157600080fd5b50565b6000815190506200080581620007da565b92915050565b60008060008060008060c087890312156200082b576200082a6200042d565b5b60006200083b89828a0162000485565b96505060206200084e89828a01620004c0565b95505060406200086189828a0162000505565b94505060606200087489828a0162000546565b935050608087015167ffffffffffffffff81111562000898576200089762000432565b5b620008a689828a01620007a0565b92505060a0620008b989828a01620007f4565b9150509295509295509295565b7f4e487b7100000000000000000000000000000000000000000000000000000000600052602260045260246000fd5b600060028204905060018216806200090e57607f821691505b60208210811415620009255762000924620008c6565b5b50919050565b60805160601c60a05160601c60c05160e05160c01c6101005160e01c610120516139bf6200099560003960008181610daf0152610edc01526000610fb601526000610f9301526000610f7201526000610f3601526000818161095601526109aa01526139bf6000f3fe60806040526004361061019c5760003560e01c806370a08231116100ec578063aa1524911161008a578063da1b9e2911610064578063da1b9e29146105ae578063dc23ad7f146105d9578063e985e9c514610616578063f2fde38b146106535761019c565b8063aa1524911461052a578063b88d4fde14610548578063c87b56dd146105715761019c565b80638da5cb5b116100c65780638da5cb5b1461046e57806395d89b4114610499578063a22cb465146104c4578063a36f573b146104ed5761019c565b806370a08231146103ef578063715018a61461042c5780637a5caab3146104435761019c565b806323b872dd1161015957806342842e0e1161013357806342842e0e146103335780635dacf5f41461035c5780636352211e146103875780636e02007d146103c45761019c565b806323b872dd146102c35780633af25975146102ec5780633ccfd60b146103295761019c565b806301ffc9a7146101a157806306fdde03146101de578063081812fc14610209578063095ea7b3146102465780630b21a83b1461026f5780631fe543e31461029a575b600080fd5b3480156101ad57600080fd5b506101c860048036038101906101c3919061256d565b61067c565b6040516101d591906125b5565b60405180910390f35b3480156101ea57600080fd5b506101f361075e565b6040516102009190612669565b60405180910390f35b34801561021557600080fd5b50610230600480360381019061022b91906126c1565b6107f0565b60405161023d919061272f565b60405180910390f35b34801561025257600080fd5b5061026d60048036038101906102689190612776565b610836565b005b34801561027b57600080fd5b5061028461094e565b60405161029191906127c5565b60405180910390f35b3480156102a657600080fd5b506102c160048036038101906102bc9190612928565b610954565b005b3480156102cf57600080fd5b506102ea60048036038101906102e59190612984565b610a14565b005b3480156102f857600080fd5b50610313600480360381019061030e91906126c1565b610a74565b6040516103209190612669565b60405180910390f35b610331610b24565b005b34801561033f57600080fd5b5061035a60048036038101906103559190612984565b610bd8565b005b34801561036857600080fd5b50610371610bf8565b60405161037e9190612a82565b60405180910390f35b34801561039357600080fd5b506103ae60048036038101906103a991906126c1565b610c23565b6040516103bb919061272f565b60405180910390f35b3480156103d057600080fd5b506103d9610cd5565b6040516103e691906127c5565b60405180910390f35b3480156103fb57600080fd5b5061041660048036038101906104119190612a9d565b610cdf565b60405161042391906127c5565b60405180910390f35b34801561043857600080fd5b50610441610d97565b005b34801561044f57600080fd5b50610458610dab565b60405161046591906127c5565b60405180910390f35b34801561047a57600080fd5b50610483610dd3565b604051610490919061272f565b60405180910390f35b3480156104a557600080fd5b506104ae610dfd565b6040516104bb9190612669565b60405180910390f35b3480156104d057600080fd5b506104eb60048036038101906104e69190612af6565b610e8f565b005b3480156104f957600080fd5b50610514600480360381019061050f91906126c1565b610ea5565b604051610521919061272f565b60405180910390f35b610532610ed8565b60405161053f91906127c5565b60405180910390f35b34801561055457600080fd5b5061056f600480360381019061056a9190612beb565b6110d8565b005b34801561057d57600080fd5b50610598600480360381019061059391906126c1565b61113a565b6040516105a59190612669565b60405180910390f35b3480156105ba57600080fd5b506105c361124d565b6040516105d091906127c5565b60405180910390f35b3480156105e557600080fd5b5061060060048036038101906105fb91906126c1565b611252565b60405161060d9190612ce5565b60405180910390f35b34801561062257600080fd5b5061063d60048036038101906106389190612d00565b611334565b60405161064a91906125b5565b60405180910390f35b34801561065f57600080fd5b5061067a60048036038101906106759190612a9d565b6113c8565b005b60007f80ac58cd000000000000000000000000000000000000000000000000000000007bffffffffffffffffffffffffffffffffffffffffffffffffffffffff1916827bffffffffffffffffffffffffffffffffffffffffffffffffffffffff1916148061074757507f5b5e139f000000000000000000000000000000000000000000000000000000007bffffffffffffffffffffffffffffffffffffffffffffffffffffffff1916827bffffffffffffffffffffffffffffffffffffffffffffffffffffffff1916145b8061075757506107568261144c565b5b9050919050565b60606000805461076d90612d6f565b80601f016020809104026020016040519081016040528092919081815260200182805461079990612d6f565b80156107e65780601f106107bb576101008083540402835291602001916107e6565b820191906000526020600020905b8154815290600101906020018083116107c957829003601f168201915b5050505050905090565b60006107fb826114b6565b6004600083815260200190815260200160002060009054906101000a900473ffffffffffffffffffffffffffffffffffffffff169050919050565b600061084182610c23565b90508073ffffffffffffffffffffffffffffffffffffffff168373ffffffffffffffffffffffffffffffffffffffff1614156108b2576040517f08c379a00000000000000000000000000000000000000000000000000000000081526004016108a990612e13565b60405180910390fd5b8073ffffffffffffffffffffffffffffffffffffffff166108d1611501565b73ffffffffffffffffffffffffffffffffffffffff16148061090057506108ff816108fa611501565b611334565b5b61093f576040517f08c379a000000000000000000000000000000000000000000000000000000000815260040161093690612ea5565b60405180910390fd5b6109498383611509565b505050565b60095481565b7f000000000000000000000000000000000000000000000000000000000000000073ffffffffffffffffffffffffffffffffffffffff163373ffffffffffffffffffffffffffffffffffffffff1614610a0657337f00000000000000000000000000000000000000000000000000000000000000006040517f1cf993f40000000000000000000000000000000000000000000000000000000081526004016109fd929190612ec5565b60405180910390fd5b610a1082826115c2565b5050565b610a25610a1f611501565b8261175c565b610a64576040517f08c379a0000000000000000000000000000000000000000000000000000000008152600401610a5b90612f60565b60405180910390fd5b610a6f8383836117f1565b505050565b6060600a8281548110610a8a57610a89612f80565b5b906000526020600020018054610a9f90612d6f565b80601f0160208091040260200160405190810160405280929190818152602001828054610acb90612d6f565b8015610b185780601f10610aed57610100808354040283529160200191610b18565b820191906000526020600020905b815481529060010190602001808311610afb57829003601f168201915b50505050509050919050565b610b2c611a58565b600047905060003373ffffffffffffffffffffffffffffffffffffffff1682604051610b5790612fe0565b60006040518083038185875af1925050503d8060008114610b94576040519150601f19603f3d011682016040523d82523d6000602084013e610b99565b606091505b5050905080610bd4576040517fca7e25b700000000000000000000000000000000000000000000000000000000815260040160405180910390fd5b5050565b610bf3838383604051806020016040528060008152506110d8565b505050565b610c0061243c565b6040518060600160405280600a8152602001601e81526020016064815250905090565b6000806002600084815260200190815260200160002060009054906101000a900473ffffffffffffffffffffffffffffffffffffffff169050600073ffffffffffffffffffffffffffffffffffffffff168173ffffffffffffffffffffffffffffffffffffffff161415610ccc576040517f08c379a0000000000000000000000000000000000000000000000000000000008152600401610cc390613041565b60405180910390fd5b80915050919050565b6000600954905090565b60008073ffffffffffffffffffffffffffffffffffffffff168273ffffffffffffffffffffffffffffffffffffffff161415610d50576040517f08c379a0000000000000000000000000000000000000000000000000000000008152600401610d47906130d3565b60405180910390fd5b600360008373ffffffffffffffffffffffffffffffffffffffff1673ffffffffffffffffffffffffffffffffffffffff168152602001908152602001600020549050919050565b610d9f611a58565b610da96000611ad6565b565b60007f0000000000000000000000000000000000000000000000000000000000000000905090565b6000600760009054906101000a900473ffffffffffffffffffffffffffffffffffffffff16905090565b606060018054610e0c90612d6f565b80601f0160208091040260200160405190810160405280929190818152602001828054610e3890612d6f565b8015610e855780601f10610e5a57610100808354040283529160200191610e85565b820191906000526020600020905b815481529060010190602001808311610e6857829003601f168201915b5050505050905090565b610ea1610e9a611501565b8383611b9c565b5050565b60086020528060005260406000206000915054906101000a900473ffffffffffffffffffffffffffffffffffffffff1681565b60007f0000000000000000000000000000000000000000000000000000000000000000341015610f34576040517ff64fbfee00000000000000000000000000000000000000000000000000000000815260040160405180910390fd5b7f000000000000000000000000000000000000000000000000000000000000000073ffffffffffffffffffffffffffffffffffffffff16635d3b1d307f00000000000000000000000000000000000000000000000000000000000000007f000000000000000000000000000000000000000000000000000000000000000060037f000000000000000000000000000000000000000000000000000000000000000060016040518663ffffffff1660e01b8152600401610ff795949392919061316b565b602060405180830381600087803b15801561101157600080fd5b505af1158015611025573d6000803e3d6000fd5b505050506040513d601f19601f8201168201806040525081019061104991906131d3565b9050336008600083815260200190815260200160002060006101000a81548173ffffffffffffffffffffffffffffffffffffffff021916908373ffffffffffffffffffffffffffffffffffffffff160217905550807ff873236e6cc0ecc5be1a9a35c95ee5b8d1ac4cc7bfef0cc5060391d6cc98e26b336040516110cd919061272f565b60405180910390a290565b6110e96110e3611501565b8361175c565b611128576040517f08c379a000000000000000000000000000000000000000000000000000000000815260040161111f90612f60565b60405180910390fd5b61113484848484611d09565b50505050565b6060611145826114b6565b600060066000848152602001908152602001600020805461116590612d6f565b80601f016020809104026020016040519081016040528092919081815260200182805461119190612d6f565b80156111de5780601f106111b3576101008083540402835291602001916111de565b820191906000526020600020905b8154815290600101906020018083116111c157829003601f168201915b5050505050905060006111ef611d65565b9050600081511415611205578192505050611248565b60008251111561123a57808260405160200161122292919061323c565b60405160208183030381529060405292505050611248565b61124384611d7c565b925050505b919050565b606481565b600080600090506000611263610bf8565b905060005b60038110156112fc578285101580156112a2575081816003811061128f5761128e612f80565b5b60200201518361129f919061328f565b85105b156112c4578060028111156112ba576112b9612c6e565b5b935050505061132f565b8181600381106112d7576112d6612f80565b5b6020020151836112e7919061328f565b925080806112f4906132e5565b915050611268565b506040517f12806c9d00000000000000000000000000000000000000000000000000000000815260040160405180910390fd5b919050565b6000600560008473ffffffffffffffffffffffffffffffffffffffff1673ffffffffffffffffffffffffffffffffffffffff16815260200190815260200160002060008373ffffffffffffffffffffffffffffffffffffffff1673ffffffffffffffffffffffffffffffffffffffff16815260200190815260200160002060009054906101000a900460ff16905092915050565b6113d0611a58565b600073ffffffffffffffffffffffffffffffffffffffff168173ffffffffffffffffffffffffffffffffffffffff161415611440576040517f08c379a0000000000000000000000000000000000000000000000000000000008152600401611437906133a0565b60405180910390fd5b61144981611ad6565b50565b60007f01ffc9a7000000000000000000000000000000000000000000000000000000007bffffffffffffffffffffffffffffffffffffffffffffffffffffffff1916827bffffffffffffffffffffffffffffffffffffffffffffffffffffffff1916149050919050565b6114bf81611de4565b6114fe576040517f08c379a00000000000000000000000000000000000000000000000000000000081526004016114f590613041565b60405180910390fd5b50565b600033905090565b816004600083815260200190815260200160002060006101000a81548173ffffffffffffffffffffffffffffffffffffffff021916908373ffffffffffffffffffffffffffffffffffffffff160217905550808273ffffffffffffffffffffffffffffffffffffffff1661157c83610c23565b73ffffffffffffffffffffffffffffffffffffffff167f8c5be1e5ebec7d5bd14f71427d1e84f3dd0314c0f7b2291e5b200ac8c7c3b92560405160405180910390a45050565b60006008600084815260200190815260200160002060009054906101000a900473ffffffffffffffffffffffffffffffffffffffff16905060006009549050600060648460008151811061161957611618612f80565b5b602002602001015161162b91906133ef565b9050600061163882611252565b90506116448484611e50565b61170683600a83600281111561165d5761165c612c6e565b5b8154811061166e5761166d612f80565b5b90600052602060002001805461168390612d6f565b80601f01602080910402602001604051908101604052809291908181526020018280546116af90612d6f565b80156116fc5780601f106116d1576101008083540402835291602001916116fc565b820191906000526020600020905b8154815290600101906020018083116116df57829003601f168201915b5050505050611e6e565b6001600954611715919061328f565b6009819055507f8a269f26b688e110e9cbd887d163dab35cae678fa353a0292de532c0cac1ecdc818560405161174c929190613420565b60405180910390a1505050505050565b60008061176883610c23565b90508073ffffffffffffffffffffffffffffffffffffffff168473ffffffffffffffffffffffffffffffffffffffff1614806117aa57506117a98185611334565b5b806117e857508373ffffffffffffffffffffffffffffffffffffffff166117d0846107f0565b73ffffffffffffffffffffffffffffffffffffffff16145b91505092915050565b8273ffffffffffffffffffffffffffffffffffffffff1661181182610c23565b73ffffffffffffffffffffffffffffffffffffffff1614611867576040517f08c379a000000000000000000000000000000000000000000000000000000000815260040161185e906134bb565b60405180910390fd5b600073ffffffffffffffffffffffffffffffffffffffff168273ffffffffffffffffffffffffffffffffffffffff1614156118d7576040517f08c379a00000000000000000000000000000000000000000000000000000000081526004016118ce9061354d565b60405180910390fd5b6118e2838383611ee2565b6118ed600082611509565b6001600360008573ffffffffffffffffffffffffffffffffffffffff1673ffffffffffffffffffffffffffffffffffffffff168152602001908152602001600020600082825461193d919061356d565b925050819055506001600360008473ffffffffffffffffffffffffffffffffffffffff1673ffffffffffffffffffffffffffffffffffffffff1681526020019081526020016000206000828254611994919061328f565b92505081905550816002600083815260200190815260200160002060006101000a81548173ffffffffffffffffffffffffffffffffffffffff021916908373ffffffffffffffffffffffffffffffffffffffff160217905550808273ffffffffffffffffffffffffffffffffffffffff168473ffffffffffffffffffffffffffffffffffffffff167fddf252ad1be2c89b69c2b068fc378daa952ba7f163c4a11628f55a4df523b3ef60405160405180910390a4611a53838383611ee7565b505050565b611a60611501565b73ffffffffffffffffffffffffffffffffffffffff16611a7e610dd3565b73ffffffffffffffffffffffffffffffffffffffff1614611ad4576040517f08c379a0000000000000000000000000000000000000000000000000000000008152600401611acb906135ed565b60405180910390fd5b565b6000600760009054906101000a900473ffffffffffffffffffffffffffffffffffffffff16905081600760006101000a81548173ffffffffffffffffffffffffffffffffffffffff021916908373ffffffffffffffffffffffffffffffffffffffff1602179055508173ffffffffffffffffffffffffffffffffffffffff168173ffffffffffffffffffffffffffffffffffffffff167f8be0079c531659141344cd1fd0a4f28419497f9722a3daafe3b4186f6b6457e060405160405180910390a35050565b8173ffffffffffffffffffffffffffffffffffffffff168373ffffffffffffffffffffffffffffffffffffffff161415611c0b576040517f08c379a0000000000000000000000000000000000000000000000000000000008152600401611c0290613659565b60405180910390fd5b80600560008573ffffffffffffffffffffffffffffffffffffffff1673ffffffffffffffffffffffffffffffffffffffff16815260200190815260200160002060008473ffffffffffffffffffffffffffffffffffffffff1673ffffffffffffffffffffffffffffffffffffffff16815260200190815260200160002060006101000a81548160ff0219169083151502179055508173ffffffffffffffffffffffffffffffffffffffff168373ffffffffffffffffffffffffffffffffffffffff167f17307eab39ab6107e8899845ad3d59bd9653f200f220920489ca2b5937696c3183604051611cfc91906125b5565b60405180910390a3505050565b611d148484846117f1565b611d2084848484611eec565b611d5f576040517f08c379a0000000000000000000000000000000000000000000000000000000008152600401611d56906136eb565b60405180910390fd5b50505050565b606060405180602001604052806000815250905090565b6060611d87826114b6565b6000611d91611d65565b90506000815111611db15760405180602001604052806000815250611ddc565b80611dbb84612083565b604051602001611dcc92919061323c565b6040516020818303038152906040525b915050919050565b60008073ffffffffffffffffffffffffffffffffffffffff166002600084815260200190815260200160002060009054906101000a900473ffffffffffffffffffffffffffffffffffffffff1673ffffffffffffffffffffffffffffffffffffffff1614159050919050565b611e6a8282604051806020016040528060008152506121e4565b5050565b611e7782611de4565b611eb6576040517f08c379a0000000000000000000000000000000000000000000000000000000008152600401611ead9061377d565b60405180910390fd5b80600660008481526020019081526020016000209080519060200190611edd92919061245e565b505050565b505050565b505050565b6000611f0d8473ffffffffffffffffffffffffffffffffffffffff1661223f565b15612076578373ffffffffffffffffffffffffffffffffffffffff1663150b7a02611f36611501565b8786866040518563ffffffff1660e01b8152600401611f5894939291906137f2565b602060405180830381600087803b158015611f7257600080fd5b505af1925050508015611fa357506040513d601f19601f82011682018060405250810190611fa09190613853565b60015b612026573d8060008114611fd3576040519150601f19603f3d011682016040523d82523d6000602084013e611fd8565b606091505b5060008151141561201e576040517f08c379a0000000000000000000000000000000000000000000000000000000008152600401612015906136eb565b60405180910390fd5b805181602001fd5b63150b7a0260e01b7bffffffffffffffffffffffffffffffffffffffffffffffffffffffff1916817bffffffffffffffffffffffffffffffffffffffffffffffffffffffff19161491505061207b565b600190505b949350505050565b606060008214156120cb576040518060400160405280600181526020017f300000000000000000000000000000000000000000000000000000000000000081525090506121df565b600082905060005b600082146120fd5780806120e6906132e5565b915050600a826120f69190613880565b91506120d3565b60008167ffffffffffffffff811115612119576121186127e5565b5b6040519080825280601f01601f19166020018201604052801561214b5781602001600182028036833780820191505090505b5090505b600085146121d857600182612164919061356d565b9150600a8561217391906133ef565b603061217f919061328f565b60f81b81838151811061219557612194612f80565b5b60200101907effffffffffffffffffffffffffffffffffffffffffffffffffffffffffffff1916908160001a905350600a856121d19190613880565b945061214f565b8093505050505b919050565b6121ee8383612262565b6121fb6000848484611eec565b61223a576040517f08c379a0000000000000000000000000000000000000000000000000000000008152600401612231906136eb565b60405180910390fd5b505050565b6000808273ffffffffffffffffffffffffffffffffffffffff163b119050919050565b600073ffffffffffffffffffffffffffffffffffffffff168273ffffffffffffffffffffffffffffffffffffffff1614156122d2576040517f08c379a00000000000000000000000000000000000000000000000000000000081526004016122c9906138fd565b60405180910390fd5b6122db81611de4565b1561231b576040517f08c379a000000000000000000000000000000000000000000000000000000000815260040161231290613969565b60405180910390fd5b61232760008383611ee2565b6001600360008473ffffffffffffffffffffffffffffffffffffffff1673ffffffffffffffffffffffffffffffffffffffff1681526020019081526020016000206000828254612377919061328f565b92505081905550816002600083815260200190815260200160002060006101000a81548173ffffffffffffffffffffffffffffffffffffffff021916908373ffffffffffffffffffffffffffffffffffffffff160217905550808273ffffffffffffffffffffffffffffffffffffffff16600073ffffffffffffffffffffffffffffffffffffffff167fddf252ad1be2c89b69c2b068fc378daa952ba7f163c4a11628f55a4df523b3ef60405160405180910390a461243860008383611ee7565b5050565b6040518060600160405280600390602082028036833780820191505090505090565b82805461246a90612d6f565b90600052602060002090601f01602090048101928261248c57600085556124d3565b82601f106124a557805160ff19168380011785556124d3565b828001600101855582156124d3579182015b828111156124d25782518255916020019190600101906124b7565b5b5090506124e091906124e4565b5090565b5b808211156124fd5760008160009055506001016124e5565b5090565b6000604051905090565b600080fd5b600080fd5b60007fffffffff0000000000000000000000000000000000000000000000000000000082169050919050565b61254a81612515565b811461255557600080fd5b50565b60008135905061256781612541565b92915050565b6000602082840312156125835761258261250b565b5b600061259184828501612558565b91505092915050565b60008115159050919050565b6125af8161259a565b82525050565b60006020820190506125ca60008301846125a6565b92915050565b600081519050919050565b600082825260208201905092915050565b60005b8381101561260a5780820151818401526020810190506125ef565b83811115612619576000848401525b50505050565b6000601f19601f8301169050919050565b600061263b826125d0565b61264581856125db565b93506126558185602086016125ec565b61265e8161261f565b840191505092915050565b600060208201905081810360008301526126838184612630565b905092915050565b6000819050919050565b61269e8161268b565b81146126a957600080fd5b50565b6000813590506126bb81612695565b92915050565b6000602082840312156126d7576126d661250b565b5b60006126e5848285016126ac565b91505092915050565b600073ffffffffffffffffffffffffffffffffffffffff82169050919050565b6000612719826126ee565b9050919050565b6127298161270e565b82525050565b60006020820190506127446000830184612720565b92915050565b6127538161270e565b811461275e57600080fd5b50565b6000813590506127708161274a565b92915050565b6000806040838503121561278d5761278c61250b565b5b600061279b85828601612761565b92505060206127ac858286016126ac565b9150509250929050565b6127bf8161268b565b82525050565b60006020820190506127da60008301846127b6565b92915050565b600080fd5b7f4e487b7100000000000000000000000000000000000000000000000000000000600052604160045260246000fd5b61281d8261261f565b810181811067ffffffffffffffff8211171561283c5761283b6127e5565b5b80604052505050565b600061284f612501565b905061285b8282612814565b919050565b600067ffffffffffffffff82111561287b5761287a6127e5565b5b602082029050602081019050919050565b600080fd5b60006128a461289f84612860565b612845565b905080838252602082019050602084028301858111156128c7576128c661288c565b5b835b818110156128f057806128dc88826126ac565b8452602084019350506020810190506128c9565b5050509392505050565b600082601f83011261290f5761290e6127e0565b5b813561291f848260208601612891565b91505092915050565b6000806040838503121561293f5761293e61250b565b5b600061294d858286016126ac565b925050602083013567ffffffffffffffff81111561296e5761296d612510565b5b61297a858286016128fa565b9150509250929050565b60008060006060848603121561299d5761299c61250b565b5b60006129ab86828701612761565b93505060206129bc86828701612761565b92505060406129cd868287016126ac565b9150509250925092565b600060039050919050565b600081905092915050565b6000819050919050565b612a008161268b565b82525050565b6000612a1283836129f7565b60208301905092915050565b6000602082019050919050565b612a34816129d7565b612a3e81846129e2565b9250612a49826129ed565b8060005b83811015612a7a578151612a618782612a06565b9650612a6c83612a1e565b925050600181019050612a4d565b505050505050565b6000606082019050612a976000830184612a2b565b92915050565b600060208284031215612ab357612ab261250b565b5b6000612ac184828501612761565b91505092915050565b612ad38161259a565b8114612ade57600080fd5b50565b600081359050612af081612aca565b92915050565b60008060408385031215612b0d57612b0c61250b565b5b6000612b1b85828601612761565b9250506020612b2c85828601612ae1565b9150509250929050565b600080fd5b600067ffffffffffffffff821115612b5657612b556127e5565b5b612b5f8261261f565b9050602081019050919050565b82818337600083830152505050565b6000612b8e612b8984612b3b565b612845565b905082815260208101848484011115612baa57612ba9612b36565b5b612bb5848285612b6c565b509392505050565b600082601f830112612bd257612bd16127e0565b5b8135612be2848260208601612b7b565b91505092915050565b60008060008060808587031215612c0557612c0461250b565b5b6000612c1387828801612761565b9450506020612c2487828801612761565b9350506040612c35878288016126ac565b925050606085013567ffffffffffffffff811115612c5657612c55612510565b5b612c6287828801612bbd565b91505092959194509250565b7f4e487b7100000000000000000000000000000000000000000000000000000000600052602160045260246000fd5b60038110612cae57612cad612c6e565b5b50565b6000819050612cbf82612c9d565b919050565b6000612ccf82612cb1565b9050919050565b612cdf81612cc4565b82525050565b6000602082019050612cfa6000830184612cd6565b92915050565b60008060408385031215612d1757612d1661250b565b5b6000612d2585828601612761565b9250506020612d3685828601612761565b9150509250929050565b7f4e487b7100000000000000000000000000000000000000000000000000000000600052602260045260246000fd5b60006002820490506001821680612d8757607f821691505b60208210811415612d9b57612d9a612d40565b5b50919050565b7f4552433732313a20617070726f76616c20746f2063757272656e74206f776e6560008201527f7200000000000000000000000000000000000000000000000000000000000000602082015250565b6000612dfd6021836125db565b9150612e0882612da1565b604082019050919050565b60006020820190508181036000830152612e2c81612df0565b9050919050565b7f4552433732313a20617070726f76652063616c6c6572206973206e6f7420746f60008201527f6b656e206f776e6572206e6f7220617070726f76656420666f7220616c6c0000602082015250565b6000612e8f603e836125db565b9150612e9a82612e33565b604082019050919050565b60006020820190508181036000830152612ebe81612e82565b9050919050565b6000604082019050612eda6000830185612720565b612ee76020830184612720565b9392505050565b7f4552433732313a2063616c6c6572206973206e6f7420746f6b656e206f776e6560008201527f72206e6f7220617070726f766564000000000000000000000000000000000000602082015250565b6000612f4a602e836125db565b9150612f5582612eee565b604082019050919050565b60006020820190508181036000830152612f7981612f3d565b9050919050565b7f4e487b7100000000000000000000000000000000000000000000000000000000600052603260045260246000fd5b600081905092915050565b50565b6000612fca600083612faf565b9150612fd582612fba565b600082019050919050565b6000612feb82612fbd565b9150819050919050565b7f4552433732313a20696e76616c696420746f6b656e2049440000000000000000600082015250565b600061302b6018836125db565b915061303682612ff5565b602082019050919050565b6000602082019050818103600083015261305a8161301e565b9050919050565b7f4552433732313a2061646472657373207a65726f206973206e6f74206120766160008201527f6c6964206f776e65720000000000000000000000000000000000000000000000602082015250565b60006130bd6029836125db565b91506130c882613061565b604082019050919050565b600060208201905081810360008301526130ec816130b0565b9050919050565b6000819050919050565b613106816130f3565b82525050565b600067ffffffffffffffff82169050919050565b6131298161310c565b82525050565b600061ffff82169050919050565b6131468161312f565b82525050565b600063ffffffff82169050919050565b6131658161314c565b82525050565b600060a08201905061318060008301886130fd565b61318d6020830187613120565b61319a604083018661313d565b6131a7606083018561315c565b6131b4608083018461315c565b9695505050505050565b6000815190506131cd81612695565b92915050565b6000602082840312156131e9576131e861250b565b5b60006131f7848285016131be565b91505092915050565b600081905092915050565b6000613216826125d0565b6132208185613200565b93506132308185602086016125ec565b80840191505092915050565b6000613248828561320b565b9150613254828461320b565b91508190509392505050565b7f4e487b7100000000000000000000000000000000000000000000000000000000600052601160045260246000fd5b600061329a8261268b565b91506132a58361268b565b9250827fffffffffffffffffffffffffffffffffffffffffffffffffffffffffffffffff038211156132da576132d9613260565b5b828201905092915050565b60006132f08261268b565b91507fffffffffffffffffffffffffffffffffffffffffffffffffffffffffffffffff82141561332357613322613260565b5b600182019050919050565b7f4f776e61626c653a206e6577206f776e657220697320746865207a65726f206160008201527f6464726573730000000000000000000000000000000000000000000000000000602082015250565b600061338a6026836125db565b91506133958261332e565b604082019050919050565b600060208201905081810360008301526133b98161337d565b9050919050565b7f4e487b7100000000000000000000000000000000000000000000000000000000600052601260045260246000fd5b60006133fa8261268b565b91506134058361268b565b925082613415576134146133c0565b5b828206905092915050565b60006040820190506134356000830185612cd6565b6134426020830184612720565b9392505050565b7f4552433732313a207472616e736665722066726f6d20696e636f72726563742060008201527f6f776e6572000000000000000000000000000000000000000000000000000000602082015250565b60006134a56025836125db565b91506134b082613449565b604082019050919050565b600060208201905081810360008301526134d481613498565b9050919050565b7f4552433732313a207472616e7366657220746f20746865207a65726f2061646460008201527f7265737300000000000000000000000000000000000000000000000000000000602082015250565b60006135376024836125db565b9150613542826134db565b604082019050919050565b600060208201905081810360008301526135668161352a565b9050919050565b60006135788261268b565b91506135838361268b565b92508282101561359657613595613260565b5b828203905092915050565b7f4f776e61626c653a2063616c6c6572206973206e6f7420746865206f776e6572600082015250565b60006135d76020836125db565b91506135e2826135a1565b602082019050919050565b60006020820190508181036000830152613606816135ca565b9050919050565b7f4552433732313a20617070726f766520746f2063616c6c657200000000000000600082015250565b60006136436019836125db565b915061364e8261360d565b602082019050919050565b6000602082019050818103600083015261367281613636565b9050919050565b7f4552433732313a207472616e7366657220746f206e6f6e20455243373231526560008201527f63656976657220696d706c656d656e7465720000000000000000000000000000602082015250565b60006136d56032836125db565b91506136e082613679565b604082019050919050565b60006020820190508181036000830152613704816136c8565b9050919050565b7f45524337323155524953746f726167653a2055524920736574206f66206e6f6e60008201527f6578697374656e7420746f6b656e000000000000000000000000000000000000602082015250565b6000613767602e836125db565b91506137728261370b565b604082019050919050565b600060208201905081810360008301526137968161375a565b9050919050565b600081519050919050565b600082825260208201905092915050565b60006137c48261379d565b6137ce81856137a8565b93506137de8185602086016125ec565b6137e78161261f565b840191505092915050565b60006080820190506138076000830187612720565b6138146020830186612720565b61382160408301856127b6565b818103606083015261383381846137b9565b905095945050505050565b60008151905061384d81612541565b92915050565b6000602082840312156138695761386861250b565b5b60006138778482850161383e565b91505092915050565b600061388b8261268b565b91506138968361268b565b9250826138a6576138a56133c0565b5b828204905092915050565b7f4552433732313a206d696e7420746f20746865207a65726f2061646472657373600082015250565b60006138e76020836125db565b91506138f2826138b1565b602082019050919050565b60006020820190508181036000830152613916816138da565b9050919050565b7f4552433732313a20746f6b656e20616c7265616479206d696e74656400000000600082015250565b6000613953601c836125db565b915061395e8261391d565b602082019050919050565b6000602082019050818103600083015261398281613946565b905091905056fea2646970667358221220ddc974de77fe6da4bc127eb5b5a7c197b0991cae1bcec632697c7ac5b0c88e3764736f6c63430008080033",
  "devdoc": {
    "kind": "dev",
    "methods": {
      "approve(address,uint256)": {
        "details": "See {IERC721-approve}."
      },
      "balanceOf(address)": {
        "details": "See {IERC721-balanceOf}."
      },
      "getApproved(uint256)": {
        "details": "See {IERC721-getApproved}."
      },
      "isApprovedForAll(address,address)": {
        "details": "See {IERC721-isApprovedForAll}."
      },
      "name()": {
        "details": "See {IERC721Metadata-name}."
      },
      "owner()": {
        "details": "Returns the address of the current owner."
      },
      "ownerOf(uint256)": {
        "details": "See {IERC721-ownerOf}."
      },
      "renounceOwnership()": {
        "details": "Leaves the contract without owner. It will not be possible to call `onlyOwner` functions anymore. Can only be called by the current owner. NOTE: Renouncing ownership will leave the contract without an owner, thereby removing any functionality that is only available to the owner."
      },
      "safeTransferFrom(address,address,uint256)": {
        "details": "See {IERC721-safeTransferFrom}."
      },
      "safeTransferFrom(address,address,uint256,bytes)": {
        "details": "See {IERC721-safeTransferFrom}."
      },
      "setApprovalForAll(address,bool)": {
        "details": "See {IERC721-setApprovalForAll}."
      },
      "supportsInterface(bytes4)": {
        "details": "See {IERC165-supportsInterface}."
      },
      "symbol()": {
        "details": "See {IERC721Metadata-symbol}."
      },
      "tokenURI(uint256)": {
        "details": "See {IERC721Metadata-tokenURI}."
      },
      "transferFrom(address,address,uint256)": {
        "details": "See {IERC721-transferFrom}."
      },
      "transferOwnership(address)": {
        "details": "Transfers ownership of the contract to a new account (`newOwner`). Can only be called by the current owner."
      }
    },
    "version": 1
  },
  "userdoc": {
    "kind": "user",
    "methods": {},
    "version": 1
  },
  "storageLayout": {
    "storage": [
      {
        "astId": 1296,
        "contract": "contracts/RandomIpfsNft.sol:RandomIpfsNft",
        "label": "_name",
        "offset": 0,
        "slot": "0",
        "type": "t_string_storage"
      },
      {
        "astId": 1298,
        "contract": "contracts/RandomIpfsNft.sol:RandomIpfsNft",
        "label": "_symbol",
        "offset": 0,
        "slot": "1",
        "type": "t_string_storage"
      },
      {
        "astId": 1302,
        "contract": "contracts/RandomIpfsNft.sol:RandomIpfsNft",
        "label": "_owners",
        "offset": 0,
        "slot": "2",
        "type": "t_mapping(t_uint256,t_address)"
      },
      {
        "astId": 1306,
        "contract": "contracts/RandomIpfsNft.sol:RandomIpfsNft",
        "label": "_balances",
        "offset": 0,
        "slot": "3",
        "type": "t_mapping(t_address,t_uint256)"
      },
      {
        "astId": 1310,
        "contract": "contracts/RandomIpfsNft.sol:RandomIpfsNft",
        "label": "_tokenApprovals",
        "offset": 0,
        "slot": "4",
        "type": "t_mapping(t_uint256,t_address)"
      },
      {
        "astId": 1316,
        "contract": "contracts/RandomIpfsNft.sol:RandomIpfsNft",
        "label": "_operatorApprovals",
        "offset": 0,
        "slot": "5",
        "type": "t_mapping(t_address,t_mapping(t_address,t_bool))"
      },
      {
        "astId": 2284,
        "contract": "contracts/RandomIpfsNft.sol:RandomIpfsNft",
        "label": "_tokenURIs",
        "offset": 0,
        "slot": "6",
        "type": "t_mapping(t_uint256,t_string_storage)"
      },
      {
        "astId": 1165,
        "contract": "contracts/RandomIpfsNft.sol:RandomIpfsNft",
        "label": "_owner",
        "offset": 0,
        "slot": "7",
        "type": "t_address"
      },
      {
        "astId": 3418,
        "contract": "contracts/RandomIpfsNft.sol:RandomIpfsNft",
        "label": "s_requestIdToSender",
        "offset": 0,
        "slot": "8",
        "type": "t_mapping(t_uint256,t_address)"
      },
      {
        "astId": 3420,
        "contract": "contracts/RandomIpfsNft.sol:RandomIpfsNft",
        "label": "s_tokenCounter",
        "offset": 0,
        "slot": "9",
        "type": "t_uint256"
      },
      {
        "astId": 3426,
        "contract": "contracts/RandomIpfsNft.sol:RandomIpfsNft",
        "label": "s_dogTokenUris",
        "offset": 0,
        "slot": "10",
        "type": "t_array(t_string_storage)dyn_storage"
      }
    ],
    "types": {
      "t_address": {
        "encoding": "inplace",
        "label": "address",
        "numberOfBytes": "20"
      },
      "t_array(t_string_storage)dyn_storage": {
        "base": "t_string_storage",
        "encoding": "dynamic_array",
        "label": "string[]",
        "numberOfBytes": "32"
      },
      "t_bool": {
        "encoding": "inplace",
        "label": "bool",
        "numberOfBytes": "1"
      },
      "t_mapping(t_address,t_bool)": {
        "encoding": "mapping",
        "key": "t_address",
        "label": "mapping(address => bool)",
        "numberOfBytes": "32",
        "value": "t_bool"
      },
      "t_mapping(t_address,t_mapping(t_address,t_bool))": {
        "encoding": "mapping",
        "key": "t_address",
        "label": "mapping(address => mapping(address => bool))",
        "numberOfBytes": "32",
        "value": "t_mapping(t_address,t_bool)"
      },
      "t_mapping(t_address,t_uint256)": {
        "encoding": "mapping",
        "key": "t_address",
        "label": "mapping(address => uint256)",
        "numberOfBytes": "32",
        "value": "t_uint256"
      },
      "t_mapping(t_uint256,t_address)": {
        "encoding": "mapping",
        "key": "t_uint256",
        "label": "mapping(uint256 => address)",
        "numberOfBytes": "32",
        "value": "t_address"
      },
      "t_mapping(t_uint256,t_string_storage)": {
        "encoding": "mapping",
        "key": "t_uint256",
        "label": "mapping(uint256 => string)",
        "numberOfBytes": "32",
        "value": "t_string_storage"
      },
      "t_string_storage": {
        "encoding": "bytes",
        "label": "string",
        "numberOfBytes": "32"
      },
      "t_uint256": {
        "encoding": "inplace",
        "label": "uint256",
        "numberOfBytes": "32"
      }
    }
  }
}